:020000040800F2
:10000000985300209D01000811380008752D000844
:100010000D380008E90200086542000800000000F1
:1000200000000000000000000000000091390008FE
:100030005103000800000000213800080D3B0008B3
:10004000B7010008B7010008B7010008B7010008B0
:10005000B7010008B7010008B7010008B7010008A0
:10006000B7010008B7010008B7010008B701000890
:1000700009030008B701000815030008B7010008CC
:10008000210300082D030008B7010008B70100088C
:10009000B7010008B7010008B7010008B701000860
:1000A000F13B0008B7010008B7010008B7010008DC
:1000B000B7010008B7010008B7010008B701000840
:1000C000B7010008B7010008B7010008B701000830
:1000D000B7010008414200084D420008594200089B
:1000E000B7010008B7010008B7010008B701000810
:1000F000B7010008B7010008B7010008B701000800
:10010000B7010008B7010008B7010008B7010008EF
:10011000B7010008B7010008B7010008113C00084A
:10012000B7010008B701000839030008B70100084B
:10013000B7010008B7010008B7010008B7010008BF
:10014000B7010008B7010008B7010008B7010008AF
:10015000B7010008B701000845030008B70100080F
:10016000B7010008B7010008B7010008B70100088F
:10017000B7010008B7010008B7010008000000003F
:10018000B7010008B7010008DFF80CD000F09AF8BA
:100190000048004765430008985300200648804700
:1001A00006480047FEE7FEE7FEE7FEE7FEE7FEE75C
:1001B000FEE7FEE7FEE7FEE7DD3B000889010008F9
:1001C0002DE9F05F0546002092469B46884606468C
:1001D000814640241BE0284641464746224600F01F
:1001E00060F853465A46C01A914110D3114618463A
:1001F000224600F047F82D1A67EB01084F462246C9
:100200000120002100F03EF817EB00094E41201EAE
:10021000A4F10104DFDC484631462A464346BDE8E6
:10022000F09F40EA01039B0703D009E008C9121FB1
:1002300008C0042AFAD203E011F8013B00F8013BA0
:10024000521EF9D27047D2B201E000F8012B491ECC
:10025000FBD270470022F6E710B513460A46044663
:100260001946FFF7F0FF204610BD30B504460020C8
:10027000034600E05B1C934203D2E05CCD5C401B74
:10028000F8D030BD202A04DB203A00FA02F1002029
:1002900070479140C2F1200320FA03F319439040C4
:1002A0007047202A04DB203A21FA02F0002170472F
:1002B00021FA02F3D040C2F12002914008431946CE
:1002C00070470000064C074D06E0E06840F001036F
:1002D00094E8070098471034AC42F6D3FFF758FF74
:1002E0002068000840680008FEE7000018B10128F7
:1002F00018BF7047322040F2DC41C2F200010968A9
:10030000886308647047000040F2FC20C2F20000DD
:1003100000F080B840F25C30C2F2000000F07AB821
:1003200040F23C20C2F2000000F074B840F29C2081
:10033000C2F2000000F06EB840F27C10C2F2000081
:1003400000F068B840F2DC10C2F2000000F062B8C1
:1003500070470000EFF3108072B600BFFEE70000A8
:1003600070B5866D044600F011FB94F83510022933
:1003700028D105462068216C026822F0160202602E
:10038000426922F08002426109B9A16C19B1016889
:1003900021F008010160016821F00101016000BF46
:1003A00020680068C00715D000F0F0FA401B06284E
:1003B000F6D320206065032084F83500002184F8FE
:1003C000341070BD802060650120002184F8341055
:1003D00070BD00BFE06D3F2101FA00F0B060012068
:1003E00084F835000020002184F8341070BD00002E
:1003F00090F83510022909D1052180F835100068E0
:10040000016821F0010101600020704780214165F1
:1004100001207047F0B581B004460020009040F202
:100420000800C2F200000268D4E9166048F2B51371
:1004300037680821C1F64E3381403942A2FB0325BB
:100440000CD0226813685B0708D5136823F00403F7
:100450001360B160616D41F001016165012181406E
:10046000394208D022685269120604D5B160616D24
:1004700041F00201616504218140394208D02268BF
:100480001268920704D5B160616D41F004016165A5
:1004900010218140394217D020680268120713D515
:1004A000B16002680168520308D4C90508D4016824
:1004B00021F008010160216C21B905E008033FD457
:1004C000216C09B120468847E16D202000FA01F235
:1004D0003A4241D020680368DB063DD5B26094F80B
:1004E00035300268052B1BD122F0160202604269EA
:1004F00022F080024261226C0AB9A26C1AB1026831
:1005000022F0080202603F208840B060012084F899
:100510003500216D0020002984F8340052D157E0C5
:100520000168520310D4C90512D4016821F01001EA
:100530000160012084F83500002084F8340007E0D1
:10054000A16C0029BED1BFE7080301D4616C00E0B3
:10055000E16B09B120468847606DC8B3606DC00784
:100560002ED0052084F835002068A90A026822F000
:1005700001020260009A01328A4200921AD802688F
:10058000D20717D0009A01328A42009212D802682C
:10059000D2070FD0009A01328A4200920AD802682C
:1005A000D20707D0009A01328A42009202D802682C
:1005B000D207DFD1012084F83500002084F8340010
:1005C000E16C29B1204601B0BDE8F040084700BF0A
:1005D00001B0F0BD2DE9F041044600F0D7F9ECB1CF
:1005E0000546022084F835000020216884F8340094
:1005F000086820F00100086021680868C00711D071
:1006000000F0C4F9401B0528F6D903252023032058
:10061000636584F83550BDE8F08100BF0120BDE876
:10062000F08100BF086848F23F02CFF21002D4E91F
:10063000013500EA020C04F10C0898E8C10143EA14
:100640000C032B431843D4E9072E3043384310439F
:10065000626A40EA0E00042A40EA08031CD1206BBB
:10066000D4E90A2E40EA0E00184308604869BEF13A
:10067000000F20F0030040EA020040F0040C11D00B
:10068000B8F5005F36D0B8F1000F45D1022A46D048
:10069000012A3BD032B942E00B60486920F00700E4
:1006A00040EA020C01F0F8004AF6AB221038CAF614
:1006B000AA22A0FB02231A0946F2DC73C0F600034B
:1006C0009A5C40F2FF335F284FF03F00C1F814C03E
:1006D00021EA030100FA02F088BF0431C4E91612CE
:1006E0008860002301250020636584F83550BDE84B
:1006F000F08100BF032AD5D8012540230120DFE87F
:1007000002F0030E030500BF82E700BFAEF1C07028
:10071000B0FA80F0400904E0032A04D3C2D1CEF33A
:1007200000600028BED0012540230120636584F8C5
:100730003550BDE8F081000070B590F834C0BCF1D0
:10074000010F46D04FF0010C80F834C0D0F858E0CB
:1007500090F835C0BCF1010F38D14FF0020C80F891
:1007600035C04FF0000CC0F854C0D0F800C0846809
:10077000056CC06DDCF80060402C26F48026CCF8B7
:100780000060CCF804300B4604BF13460A463F21F4
:1007900001FA00F0CCF80830CCF80C20CEF80800B4
:1007A000DCF8000040F01600CCF800002DB1DCF8B9
:1007B000000040F00800CCF80000DCF8000040F039
:1007C0000100CCF80000002070BD00BF002180F8BF
:1007D0003410022070BD00002DE9F04F82B000F10E
:1007E0003E4241F6004502F1FF77C4F202050822BD
:1007F00043F6004E4FEAB726A84208BF0722C4F2CC
:10080000010E072E38BF4FEAB72201250026002728
:100810004FF00008009208E008F101080437B8F131
:10082000100F06F1020600F0A7800C6805FA08F91F
:1008300014EA090FF0D0D1F804B003220BF0030C36
:10084000ACF10104B240012C6FEA020A10D88268B0
:10085000CC6802EA0A02B440224382604268CBF3C9
:10086000001422EA090204FA08F42243426005E077
:10087000BCF1030F02D14FF0030C20E0C2688C687A
:1008800002EA0A02B4402243BCF1020FC26016D150
:100890006FF0030202EA58020244D2F820C007F0C7
:1008A0001C050F230C69AB402CEA030304FA05F581
:1008B0002B431362D1F804B001250BF0030C02683E
:1008C0000CFA06F302EA0A021A431BF4403F0260E4
:1008D000A2D0002243F644030192C4F202031A6834
:1008E0004FF6084C42F480421A601A68CFF6FF7C3B
:1008F00002F480420192019A28F00302724452F8F5
:100900000C3007F00C050F24AC40A343009C04FA04
:1009100005F52B4342F80C30DEF808204B6842EA1C
:10092000090543F60C4CDC0258BF22EA0905CEF853
:100930000850C4F2010CDCF800209C0242EA0905D0
:1009400058BF22EA0905CCF80050DEF804209C03C9
:1009500042EA090558BF22EA0905CEF80450DEF83C
:100960000020DB0342EA090558BF22EA0905CEF858
:100970000050012550E700BF02B0BDE8F08F000035
:10098000002A08BF090481617047000044F69800FE
:10099000C2F200000068704740F2000044F698017F
:1009A000C2F20000C2F2000100780A681044086038
:1009B0007047000080B543F60040C4F202000168B1
:1009C00041F400710160016841F4806101600168D7
:1009D00041F480710160032000F0C8F80F2000F09E
:1009E00005F800F061F8002080BD000070B586B009
:1009F000002543F640010195C4F202010A6804464D
:100A000042F020020A60096801A801F0200101916A
:100A10000199694600F06AF9049E002E18BF01266C
:100A200000F084F94DF68361B040C4F21B31A0FBA5
:100A300001014FF0FF3000EB914140F2245041F2B0
:100A40000042C2F20000C4F2000240F2E733C0E903
:100A50000021C0E902530561856100F005FC0546EF
:100A600010B1284606B070BD40F22450C2F200001A
:100A700000F0D8FC05460028F3D1372000F036F806
:100A80000F2C0DD8372021460022002500F042F817
:100A900040F20400C2F200000460284606B070BDB7
:100AA0000125284606B070BD82B0002043F6400103
:100AB0000190C4F202014A6842F480424A604A68E6
:100AC00002F480420192019A00900868002240F0EE
:100AD0008050086008680F2100F080500090009856
:100AE0006FF0010002B000F015B80000002848BF08
:100AF0007047C1B200F01F00012202FA00F04EF26E
:100B00000012CEF2000242EAD10121F00301086096
:100B10007047000010B54EF60C5CCEF2000CDCF80D
:100B20000030C3F3022E8EF00704042C28BF0424E7
:100B3000BEF103034FF0FF3E0EFA04F438BF00236A
:100B4000A14399400EFA03F39A43114300F00F02B8
:100B500000F160430901043A03F56443624400284C
:100B600048BF02F10C03197010BD00004EF60C5185
:100B7000CEF200010A684FF6FF031A4060F30A2222
:100B800042F0806040F0FD70086070472DE9F04150
:100B9000002800F08B8043F60808C4F202080446DF
:100BA000D8F8F8030D4600F00700884207D288F80D
:100BB000F853D8F8F80300F00700A84276D120686F
:100BC000810717D5410705D5D8F8001041F4E05149
:100BD000C8F80010010705D5D8F8001041F46041AD
:100BE000C8F80010D8F80010A26821F0F0011143F5
:100BF000C8F80010C0073FD1D8F8F80300F007008C
:100C0000A84207D988F8F853D8F8F80300F007008D
:100C1000A8424BD12068410707D5D8F80010E268F8
:100C200021F4E0511143C8F80010000708D5D8F8A6
:100C30000000216920F4604040EAC100C8F80000CB
:100C400000F09CF8D8F8001046F27C72C1F3031152
:100C5000C0F60002515C40F2080220FA01F140F2B5
:100C60000400C2F200000068C2F200021160FFF747
:100C7000BDFE0020BDE8F0816068811E022907D218
:100C800058F8081C89015CBF0120BDE8F08111E023
:100C9000012807D158F8081C89035CBF0120BDE872
:100CA000F08107E058F8081C890703D40120BDE84B
:100CB000F08100BFD8F8001021F003010843C8F804
:100CC0000000FFF763FE064641F28837D8F80000BF
:100CD000616800F00C00B0EB810F8DD0FFF756FE7D
:100CE000801BB842F2D90320BDE8F0810F220260D8
:100CF00043F60802C4F20202136803F003034360E0
:100D0000136803F0F0038360136803F4E053C360D7
:100D1000D2F800C04FF4E05303EADC030361D2F8D9
:100D2000F80300F0070008607047000040F2080078
:100D300043F60801C2F20000C4F20201006809682B
:100D400046F28C72C1F38221C0F60002515CC840A9
:100D50007047000040F2080043F60801C2F20000AC
:100D6000C4F202010068096846F28C72C1F3423194
:100D7000C0F60002515CC8407047000010B543F651
:100D80000404C4F20204606800F00C0142F2004066
:100D90000829C0F2F40007D0042918BF10BD41F2A1
:100DA0000020C0F27A0010BD216801F03F022168E6
:100DB00023684902C3F3881106D4A1FB0001002374
:100DC000FFF7FEF907E000BF41F20020C0F27A0011
:100DD0004843B0FBF2F021680222C1F3014102EB6B
:100DE0004101B0FBF1F010BD2DE9F04182B00028C7
:100DF00068D00446007843F60006C007C4F2020635
:100E00000BD0B06800F00C00042840F09F803068E0
:100E1000800302D56068002854D0207880071AD556
:100E2000B06810F00C0F09D0B06800F00C00082872
:100E300040F0A6807068400200F1A2803068800710
:100E400002D5E06801283DD13068216920F0F80022
:100E500040EAC10030602078000737D4207840078E
:100E60004CD4A56955B3B06800F00C00082840F0D8
:100E7000BB80012D26D07068E16900F480028A42AF
:100E800020D1216A00F03F028A421BD147F6C0718F
:100E9000626A0140B1EB821F14D1A16A4FF6FF7361
:100EA000C903994300F44032A1F580318A4209D147
:100EB000E16A00F07060B0EB016F03D1002002B076
:100EC000BDE8F081012002B0BDE8F0816069002832
:100ED00040F20000C4F2472076D00121C0F8801E05
:100EE000FFF754FD054600BF706F8007B6D4FFF7CB
:100EF0004DFD401B0228F7D9DDE000BF306C10F03B
:100F000080580AD100200190306C40F0805030644D
:100F1000306C00F080500190019847F20007C4F255
:100F200000073868C00541D4386840F480703860E4
:100F3000FFF72CFD054600BF3868C00536D4FFF723
:100F400025FD401B0228F7D9B5E000BFB06800F0CE
:100F50000C00082803D1706840023FF558AF606864
:100F6000B0F5803F07D0B0F5A02F40F08D803068FD
:100F700040F480203060306840F4803030608DE094
:100F8000E068002852D00020C4F24720012101600F
:100F9000FFF7FCFC054600BF306880073FF554AF03
:100FA000FFF7F4FC401B0228F6D984E0A068012872
:100FB00005D005284ED1306F40F004003067306F07
:100FC00040F0010030674FE00021C0F8801EFFF7BD
:100FD000DDFC0546706F80077FF540AFFFF7D6FC5C
:100FE000401B0228F6D966E00027C4F247270020FC
:100FF0003866FFF7CBFC022D05460BD13068800127
:101000005ED5FFF7C3FC401B02284FF00300F5D963
:1010100055E700BF306880017FF550AFFFF7B6FCA1
:10102000401B02284FF00300F4D948E70020C4F227
:10103000472000210160FFF7A9FC054630688007C2
:101040007FF509AFFFF7A2FC401B02284FF0030019
:10105000F4D934E7316F002821F001013167316F95
:1010600021F0040131674DD0FFF790FC054641F2B5
:10107000883700BF306F800756D4FFF787FC401BCE
:10108000B842F7D917E000BF3168002821F4803159
:101090003160316821F4802131604FD0FFF776FC58
:1010A000054600BF306880033FF5B7AEFFF76EFC22
:1010B000401B6428F6D9032002B0BDE8F08100BFD0
:1010C00004F11C052FCD084340EA8210D9034FF6E6
:1010D000FF729143A1F5803140EA056008437060DA
:1010E00001203866FFF752FC044600BF30688001DB
:1010F0003FF5E4AEFFF74AFC001B02284FF0030067
:10110000F4D9DCE6FFF742FC054641F2883700BF20
:10111000306F800708D5FFF739FC401BB8424FF00D
:101120000300F5D9CBE600BFB8F1000F7FF499AE0C
:10113000306C20F08050306493E600BFFFF726FC4F
:10114000054600BF306880037FF567AEFFF71EFCE1
:10115000401B64284FF00300F4D9B0E6704700004C
:1011600070470000B0B590F83C20012A04BF02206F
:10117000B0BD01F108053CCDD1E900CE23F47C538C
:1011800022F470521A432EF4F0431A432CF4E04335
:101190001A4324F4C0431A432A43C96922F4804203
:1011A000036811435964002180F83C100846B0BD23
:1011B00010B590F83C20012A4FF0020251D080F87F
:1011C0003D200268D2F804E0D2F808C00C682EF086
:1011D0007003234341F2FF74C4F20004A24253603F
:1011E0000EDC40F2FF73C4F200039A4216DCB2F147
:1011F000804F2BD040F20043C4F2000324E000BF34
:1012000040F2FF33C4F201039A4213DC41F60003BB
:10121000C4F200039A4219D0002313E040F6000301
:10122000C4F200039A4211D040F60043C4F2000316
:101230000AE000BF44F20003C4F201039A4205D061
:1012400040F20043C4F201039A4204D149682CF0F1
:101250008003194391600121002280F83D1080F83D
:101260003C20104610BD0000002804BF012070473C
:1012700010B5044690F83D0028B9002084F83C00E1
:10128000204600F01FF8022084F83D002068211D50
:1012900002F0C4FC012084F8460084F83E0084F883
:1012A0003F0084F8400084F8410084F8420084F84C
:1012B000430084F8440084F8450084F83D00002091
:1012C00010BD000080B582B0006841F2FF71C4F229
:1012D000000188421EDD40F2FF31C4F20101884264
:1012E00038DC41F60001C4F20001884258D00021E8
:1012F000C4F20101884262D10020019043F640000F
:10130000C4F20200416841F001014160406800F010
:10131000010038E0B0F1804F54D040F20041C4F2F7
:10132000000188426CD040F60001C4F200018842FE
:1013300045D10020019043F64000C4F2020001684C
:1013400041F004010160006800F004000190019880
:1013500002B080BD40F20041C4F20101884243D096
:1013600044F20001C4F20101884228D1002001901A
:1013700043F64000C4F20200416841F4803141600C
:10138000406800F480300190019818200521002267
:10139000FFF7C0FB182002B0BDE88040FFF7A6BBF6
:1013A0000020019043F64000C4F20200016841F0C1
:1013B00040010160006800F040000190019802B017
:1013C00080BD00BF0020019043F64000C4F202003F
:1013D000016841F001010160006800F00100019026
:1013E000019802B080BD00BF0020019043F640008C
:1013F000C4F20200416841F00201416040680AE025
:101400000020019043F64000C4F20200016841F060
:1014100002010160006800F002000190019802B032
:1014200080BD000090F83D1001291CBF01207047CD
:10143000022180F83D10006841F2FF72C168C4F2D9
:101440000002904241F00101C1600DDC40F2FF71E9
:10145000C4F20001884215DCB0F1804F2AD040F27E
:101460000041C4F2000123E040F2FF31C4F2010167
:10147000884213DC41F60001C4F20001884219D011
:10148000002113E040F60001C4F20001884211D0AF
:1014900040F60041C4F200010AE000BF44F200013E
:1014A000C4F20101884205D040F20041C4F20101BA
:1014B000884206D1816801F00701062904BF002097
:1014C0007047016841F00101016000207047000091
:1014D00080B590F83C20012A4FF0020200F0C28053
:1014E00080F83D20D0F800C04FF67772DCF8083065
:1014F00023EA0202CCF808200B684F2B28DC1F2BB4
:1015000044DD202B45D0302B43D0402B40F0AC8025
:10151000D1F804E0C968DCF82030DCF8202022F0A3
:101520000102CCF82020DCF8182022F0F00242EA78
:10153000011123F00A0242EA0E02CCF81810CCF88E
:101540002020DCF8081041F0470121F0300180E054
:101550006F2B27DDB3F5005F48D0B3F5805F7AD0FD
:10156000702B40F08180D1E901E3C968DCF80820E4
:1015700043EA0E0322F47F4243EA01211143CCF8EF
:101580000810DCF8081041F0770162E00BB1102B75
:101590006AD1DCF8081021F07001194341F007010D
:1015A00057E000BF502B35D0602B5DD1D1F804E05F
:1015B000C968DCF8203023F01003CCF82030DCF8C8
:1015C0001830DCF8202023F4704322F0A00243EA14
:1015D000013142EA0E12CCF81810CCF82020DCF8C9
:1015E000081041F0670121F0100132E0D1E901E378
:1015F000C968DCF8082043EA0E0322F47F4243EA7C
:1016000001211143CCF80810DCF8081041F48041A6
:101610001FE000BFD1F804E0C968DCF82030DCF836
:10162000202022F00102CCF82020DCF8182022F043
:10163000F00242EA011123F00A0242EA0E02CCF85B
:101640001810CCF82020DCF8081041F0570121F0E8
:101650002001CCF808100022012180F83D10002163
:1016600080F83C10104680BD0122F5E7704700006D
:1016700010B5016804460869800744BFC8685FEA7E
:10168000807039D40869400744BFC8685FEA407079
:101690003ED40869000744BFC8685FEA007045D4BB
:1016A0000869C00644BFC8685FEAC0604AD40869D8
:1016B000C0071CBFC8685FEAC07051D10869000646
:1016C00044BFC8685FEA006052D40869400644BF5E
:1016D000C8685FEA406053D40869800646BFC8689E
:1016E0005FEA806010BD6FF0200220460A61BDE80D
:1016F0001040FFF735BD00BF6FF002000861012008
:1017000020778869800743D02046FFF7AFFF45E088
:101710006FF00400086102202077886910F4407F90
:1017200040D02046FFF7A2FF42E000BF6FF0080064
:10173000086104202077C86980073DD02046FFF764
:1017400095FF3FE06FF01000086108202077C8691E
:1017500010F4407F3AD02046FFF788FF3CE000BFFE
:101760006FF001000861204600F046FB2168A5E704
:101770006FF0800008612046FFF7F0FC2168A4E7C5
:101780006FF040000861204600F040FB2168A3E7AD
:10179000204600F061F9204600F0A2FA21680020FE
:1017A00020776FE7204600F057F9204600F098FABE
:1017B0002168002020776CE7204600F04DF9204694
:1017C00000F08EFA21680020207769E7204600F0BB
:1017D00043F9204600F084FA21680020207766E76C
:1017E000F0B587B0006841F2FF71C4F20001884291
:1017F0004FF000010691CDE90411CDE9021129DD78
:1018000040F2FF31C4F20101884253DC41F600018D
:10181000C4F20001884279D00021C4F2010188425B
:1018200040F01781002043F630010190C4F202011C
:101830000A6842F010020A60096801F01001019183
:1018400001994FF4D44102910221CDE90310059092
:10185000012052E0B0F1804F76D040F20041C4F256
:101860000001884200F0C28040F60001C4F200018D
:10187000884240F0EE80002043F630010190C4F22F
:1018800002010A6842F008020A60096801F00801D2
:10189000019101994FF4704102910221CDE90310A9
:1018A000CDE9050140F20040C4F2020000F50064F9
:1018B000CBE000BF40F20041C4F20101884275D084
:1018C00044F20001C4F20101884240F0C2800020CD
:1018D00043F630010190C4F202010A6842F010029E
:1018E0000A60096801F010010191019960210291DB
:1018F0000221CDE9031005900320069040F200403C
:10190000C4F2020000F540649FE000BF002043F6EF
:1019100030010190C4F202010A6840F2004442F032
:1019200002020A600968C4F2020401F00201019196
:1019300001994FF4404102910221CDE90310059035
:101940000920069081E000BF002543F63000019594
:10195000C4F20200016840F2004441F0010101605C
:101960000168C4F2020401F001010191019901959D
:101970000168022641F0020101600068012700F0C1
:1019800002000190019803200290A4F5806002A952
:10199000CDE9036505950697FEF71EFF4FF44060FD
:1019A000CDE90206CDE9045506974EE0002043F646
:1019B00030010190C4F202010A6842F004020A6098
:1019C000096801F00401019101994FF4307102910D
:1019D0000221CDE9031005900320069040F200405B
:1019E000C4F2020000F580642FE000BF002543F63A
:1019F00030000195C4F20200016840F2004441F059
:101A0000010101600168C4F2020401F001010191C9
:101A1000019901950168022641F002010160006808
:101A200002A900F0020001900198C0200290A4F5E4
:101A30008060CDE90365CDE90556FEF7CDFE0320B4
:101A4000CDE90206CDE90455069602A92046FEF727
:101A5000C3FE07B0F0BD0000704700002DE9F04361
:101A600090F83C30012B04BF0220BDE8F0834FEA20
:101A7000B202032A00F2FC80DFE802F0023E7EBEE2
:101A8000036840F200471A6A43F4806522F00102BD
:101A90001A621C6A1A46D3F804E052F818CF8E680E
:101AA00024F00204C4F20107BD4244EA060405D151
:101AB000CE6824F00C0426F0040634430E68BD42C0
:101AC00007D1D1E905572EF4407E45EA0E0545EAD7
:101AD000070E2CF073073743C3F804E09F614F688B
:101AE00009695F631C629F6947F008079F619F69EE
:101AF00027F004079F61B1E0036840F200481A6ACA
:101B000043F4806522F010021A621C6A1A46D3F868
:101B100004C052F818EF8F6824F02004C4F20108C2
:101B2000454544EA071407D1CF686FF0400624F01A
:101B3000C00406EA07163443D1F80090454506D1A3
:101B4000D1E905562CF440672E4347EA860C2EF463
:101B5000E64747EA0927C3F804C09F614F6809694F
:101B60009F631C629F6947F400679F619F6927F428
:101B700080679F6171E000BF036840F200481A6A05
:101B800043F4806522F480721A621C6A1A46D3F804
:101B900004C052F81CEF8F6824F40074C4F20108EA
:101BA000454544EA072408D1CF6840F2FF463F028A
:101BB00024F4406427EA06063443D1F800904545F2
:101BC00006D1D1E905562CF440572E4347EA061CAE
:101BD0002EF0730747EA0907C3F804C0DF614F68B6
:101BE0000969DF631C62DF6947F00807DF61DF69AD
:101BF00027F00407DF6131E0036840F200451A6A0C
:101C000043F4806722F480521A621A46D3F820C047
:101C10005C6852F81CEFD1F800808E68C4F20105B0
:101C2000AF4204D14D6924F4804444EA85142CF475
:101C3000005747EA06372EF4E64646EA08265C6077
:101C4000DE614E6809691E641F62DF6947F4006740
:101C5000DF61DF6927F48067DF61090213681943D8
:101C600011600021002280F83C200846BDE8F08386
:101C70000121002280F83C200846BDE8F0830000E6
:101C8000002804BF0120704710B5044690F83D00BD
:101C900028B9002084F83C00204600F01FF80220FC
:101CA00084F83D002068211D01F0B8FF012084F870
:101CB000460084F83E0084F83F0084F8400084F831
:101CC000410084F8420084F8430084F8440084F81A
:101CD000450084F83D00002010BD00007047000062
:101CE0007047000041B1082910D0042914BF00F149
:101CF000410200F13F020BE090F83E20012A1CBF98
:101D000001207047022280F83E2013E000F14002DB
:101D10001278012A1CBF012070470222082907D02F
:101D2000042914BF80F8412080F83F2002E000BF62
:101D300080F84020006801F01F010122036A02FAC6
:101D400001F123EA01020262026A114341F2FF72C9
:101D5000C4F20002904201620CDC40F2FF71C4F256
:101D60000001884214DCB0F1804F37D040F20041CE
:101D700016E000BF40F2FF31C4F20101884215DCD9
:101D800041F60001C4F20001884227D0002115E08D
:101D900040F60001C4F2000188421FD040F6004125
:101DA000C4F20001884219D01FE000BF44F20001D4
:101DB000C4F20101884211D040F20041C4F2010195
:101DC000884212D1416C40F2004340F48062C4F278
:101DD000010341F400419A42416406D1816801F057
:101DE0000701062904BF00207047016841F0010186
:101DF0000160002070470000006841F20041C4F219
:101E00000001884218BF7047FEF7C6BD704700004A
:101E100070B582B0044690F83E0020280ED11346DB
:101E20000A4600294FF0010018BF002B02D102B072
:101E300070BD00BF94F83C00012803D1022002B01D
:101E400070BD00BF012084F83C00206300262220E2
:101E5000A262A385266484F83E002168A06B43F645
:101E6000E16C44F23D0E43F66555C0F6000CC0F639
:101E7000000EC0F600050431C0E90FCEC0E91356CC
:101E8000FEF75AFC019620680168019140680190B4
:101E90000198206984F83C6030B300BF206850E8A6
:101EA000030F216840F4807041E80302E2B120682A
:101EB00050E8030F216840F4807041E803029AB1B2
:101EC000206850E8030F216840F4807041E8030265
:101ED00052B1206850E8030F216840F4807041E857
:101EE0000302002ADAD100BF206850E8050F2168FC
:101EF00040F0010041E80502E2B1206850E8050F1A
:101F0000216840F0010041E805029AB1206850E8DC
:101F1000050F216840F0010041E8050252B1206838
:101F200050E8050F216840F0010041E80502002A51
:101F3000DAD100BF206850E8050F216840F040006A
:101F400041E80502DAB1206850E8050F216840F049
:101F5000400041E8050292B1206850E8050F216871
:101F600040F0400041E805024AB1206850E8050F02
:101F7000216840F0400041E80502002ADAD1206BD8
:101F800001282FD10020009020680168009140684E
:101F900000900098206850E8030F216840F010007E
:101FA00041E8030212B3206850E8030F216840F0B3
:101FB000100041E80302CAB1206850E8030F21680D
:101FC00040F0100041E8030282B1206850E8030F9E
:101FD000216840F0100041E80302002A4FF00000A1
:101FE000D8D124E7012002B070BD00BF002002B0AC
:101FF00070BD0000F0B581B040F24064C2F2000450
:10200000A0421CBF01B0F0BD20460D4600F01AF8FA
:1020100040F2100040F61846C2F20000C2F200067C
:1020200040680027314600220023775502F08EFADF
:10203000204631467F2284F83C7001B0BDE8F04074
:10204000FFF7E6BE10B504460068416994F83D20EC
:10205000212A56D111F0800153D000BF206850E8EA
:10206000050F216820F0800041E80502DAB1206800
:1020700050E8050F216820F0800041E8050292B188
:10208000206850E8050F216820F0800041E8050233
:102090004AB1206850E8050F216820F0800041E82F
:1020A0000502002ADAD1606B002818BFFEF758F944
:1020B000206850E8030F216820F0C00041E80302C7
:1020C000DAB1206850E8030F216820F0C00041E831
:1020D000030292B1206850E8030F216820F0C0008D
:1020E00041E803024AB1206850E8030F216820F05C
:1020F000C00041E80302002ADAD1202084F83D0024
:102100002068406994F83E10222940F0A78010F022
:10211000400000F0A38000BF206850E8050F216850
:1021200020F0400041E80502DAB1206850E8050FD0
:10213000216820F0400041E8050292B1206850E893
:10214000050F216820F0400041E805024AB12068EF
:1021500050E8050F216820F0400041E80502002A00
:10216000DAD1A06B002818BFFEF7FAF8206850E813
:10217000030F216820F4907041E80302BAB320688D
:1021800050E8030F216820F4907041E8030272B315
:10219000206850E8030F216820F4907041E80302A2
:1021A0002AB3206850E8030F216820F4907041E8BA
:1021B0000302002ADAD11AE0206850E8050F2168EE
:1021C00020F0010041E80502DAB1206850E8050F6F
:1021D000216820F0010041E8050292B1206850E832
:1021E000050F216820F0010041E805024AB120688E
:1021F00050E8050F216820F0010041E80502002A9F
:10220000DAD1206B012824D1206850E8030F21681F
:1022100020F0100041E80302DAB1206850E8030F13
:10222000216820F0100041E8030292B1206850E8D4
:10223000030F216820F0100041E803024AB1206832
:1022400050E8030F216820F0100041E80302002A43
:10225000DAD1202084F83E0000202063002010BD49
:1022600070470000B0B582B0044600680168C368DA
:10227000426901F02F05202D03F0200506D12DB174
:10228000204602B0BDE8B04001F0E2BE5FEA017C4A
:102290001EBF02F0010E03F4907212EB0E0253D136
:1022A000226B012A05D111F0100218BF13F01002A1
:1022B00036D10A0622D513F080021FD094F83D10C3
:1022C00021293FD1A168B1F5805F03D1216900299F
:1022D00000F07282216A4A1C226209784160E18C16
:1022E00001390A04E1842DD1C16821F08001C16067
:1022F000C16841F04001C16002B0B0BD490621D5BE
:1023000013F040011ED0C16821F04001C1602021BE
:10231000204684F83D1002B0BDE8B04000F028BD72
:102320000021019101680191416801910199406981
:10233000400613D4A08DE18DE28D002A18BF88429B
:1023400040F0BE8102B0B0BDCA0718BF13F480725E
:1023500040F0BA804A0700F1BD80C2E0A16B086876
:10236000426893B2002BEDD0A08D8342EAD2E28581
:10237000C969B1F5807F00F09D80206850E8030FA7
:10238000216820F4807041E80302DAB1206850E847
:10239000030F216820F4807041E8030292B12068A5
:1023A00050E8030F216820F4807041E803024AB12D
:1023B000206850E8030F216820F4807041E8030290
:1023C000002ADAD1206850E8050F216820F00100CA
:1023D00041E80502DAB1206850E8050F216820F0D5
:1023E000010041E8050292B1206850E8050F21681C
:1023F00020F0010041E805024AB1206850E8050FCD
:10240000216820F0010041E80502002ADAD12068A5
:1024100050E8050F216820F0400041E80502DAB1DC
:10242000206850E8050F216820F0400041E80502CF
:1024300092B1206850E8050F216820F0400041E883
:1024400005024AB1206850E8050F216820F04000DD
:1024500041E80502002ADAD1202084F83E0000205D
:102460002063206850E8030F216820F0100041E845
:102470000302DAB1206850E8030F216820F0100051
:1024800041E8030292B1206850E8030F216820F070
:10249000100041E803024AB1206850E8030F2168A8
:1024A00020F0100041E80302002ADAD1A06BFDF70A
:1024B00057FFA08DE18D401A81B2204602B0BDE8E1
:1024C000B040FFF797BD00BF226C42F001022264CA
:1024D0004A0706D5BEF1000F03D0226C42F002027B
:1024E00022648A0706D5BEF1000F03D0226C42F0A9
:1024F00004022264BCF1000F09D545EA0E02B2FACB
:1025000082F2520903D1226C42F008022264226C4A
:10251000002A3FF417AF11F0200118BF002D03D09F
:10252000204601F095FD20684069216C00F04000D4
:1025300001F00801401800F0B58000BF206850E8A5
:10254000030F216820F4907041E80302BAB32068B9
:1025500050E8030F216820F4907041E8030272B341
:10256000206850E8030F216820F4907041E80302CE
:102570002AB3206850E8030F216820F4907041E8E6
:102580000302002ADAD11AE0206850E8050F21681A
:1025900020F0010041E80502DAB1206850E8050F9B
:1025A000216820F0010041E8050292B1206850E85E
:1025B000050F216820F0010041E805024AB12068BA
:1025C00050E8050F216820F0010041E80502002ACB
:1025D000DAD1206B012824D1206850E8030F21684C
:1025E00020F0100041E80302DAB1206850E8030F40
:1025F000216820F0100041E8030292B1206850E801
:10260000030F216820F0100041E803024AB120685E
:1026100050E8030F216820F0100041E80302002A6F
:10262000DAD1202084F83E00002020632068406931
:1026300040063FD5206850E8050F216820F0400093
:1026400041E80502DAB1206850E8050F216820F062
:10265000400041E8050292B1206850E8050F21686A
:1026600020F0400041E805024AB1206850E8050F1B
:10267000216820F0400041E80502002ADAD1A06B71
:10268000C0B143F65951C0F600010165FDF7B0FE37
:1026900000283FF457AEA06B016D02B0BDE8B0401A
:1026A000084700BF2046FFF7DBFD0020206402B092
:1026B000B0BD00BF204602B0BDE8B040FFF7D0BDBE
:1026C000401A216851E8031F226821F4907142E802
:1026D0000313DBB1216851E8031F226821F49071D4
:1026E00042E8031393B1216851E8031F226821F4E3
:1026F000907142E803134BB1216851E8031F22682F
:1027000021F4907142E80313002BDAD1216851E8DB
:10271000051F226821F0010142E80513DBB12168A1
:1027200051E8051F226821F0010142E8051393B129
:10273000216851E8051F226821F0010142E80513D4
:102740004BB1216851E8051F226821F0010142E8E0
:102750000513002BDAD1202184F83E1000212163DB
:10276000216851E8031F226821F0100142E8031399
:10277000002B3FF4A1AE216851E8031F226821F02D
:10278000100142E80313002B3FF496AE216851E894
:10279000031F226821F0100142E80313002B3FF4CD
:1027A0008BAE216851E8031F226821F0100142E836
:1027B0000313002BD4D17FE6216A31F8022B6FF38B
:1027C0005F22426021628AE5002804BF0120704731
:1027D00010B5044690F83D0028B9002084F83C006C
:1027E000204600F021F8242084F83D002068C168CC
:1027F00021F40051C160204601F0AAFC2068016963
:1028000021F490410161416921F02A014161C168CF
:1028100041F40051C16000202021206484F83D1063
:1028200084F83E1010BD00002DE9F04387B0044647
:10283000006844F20041C4F2000100268842CDE95C
:102840000566CDE90366029672D044F60001C4F233
:102850000001884200F0D28041F20001C4F201017F
:10286000884240F03981002643F630000196C4F2D8
:102870000200416946F2280841F0100141614169B6
:10288000C4F2020801F0100101910199019601685A
:1028900041F001010160006802A900F0010001900F
:1028A00001984FF4C06002900220CDE90306032096
:1028B0000590072006900020C4F20200FDF78CFF6F
:1028C00040F27C1508F58360C2F200054FF0006706
:1028D0004FF48069C5E900072846C5E90266C5E9E5
:1028E0000496C5E90666C5E90866FDF773FE00288B
:1028F00018BFFDF72FFDA563AC6340F2DC1508F5AA
:102900009260C2F200054021C5E9000705F1080008
:1029100080E842022846C5E90566C5E907666E6299
:10292000FDF758FE00284FF0250640F0C980C9E0A9
:1029300043F630000196C4F20200016946F228080D
:1029400041F4003101610169C4F2020801F400316F
:10295000019101990196016841F00101016000684F
:1029600002A900F00100019001980C2002900220C1
:10297000CDE9030603200590072006900020C4F24D
:102980000200FDF729FF40F23C2508F16000C2F289
:1029900000054FF000674FF48069C5E9000728463D
:1029A000C5E90266C5E90496C5E90666C5E9086693
:1029B000FDF710FE002818BFFDF7CCFCA563AC6343
:1029C00040F29C2508F17800C2F200054021C5E9DB
:1029D000000705F10800002280E806022846C5E944
:1029E0000522C5E907226A62FDF7F4FD00284FF0D1
:1029F000260618BFFDF7AEFC64E000BF002643F6D4
:102A000030000196C4F20200016946F2280841F440
:102A1000802101610169C4F2020801F48021019161
:102A200001990196016841F008010160006802A95E
:102A300000F00800019001984FF4407002900220CD
:102A4000CDE9030603200590072006900020C4F27C
:102A5000020000F54060FDF7BFFE40F2FC25C2F227
:102A600000054FF000674FF480692846C5E90087EC
:102A7000C5E90266C5E90496C5E90666C5E90866C2
:102A8000FDF7A8FD002818BFFDF764FCA563AC6343
:102A900040F25C3508F13000C2F200054021C5E982
:102AA000000705F1080080E842022846C5E90566EE
:102AB000C5E907666E62FDF78DFD4FF0270608B188
:102AC000FDF748FC3046052100226563AC63FEF744
:102AD00021F83046FEF70AF807B0BDE8F0830000A1
:102AE00070470000704700002DE9F04381B00446B4
:102AF00090F83D0020280DD10F4600294FF001002D
:102B000000F0DD801646002A00F0D98094F83C00E1
:102B1000012803D1022001B0BDE8F083012084F830
:102B20003C000020206421201D4684F83D00FDF774
:102B30002DFFA684E684A1680646B1F5805F03D127
:102B40002069002800F01081B8460027002084F892
:102B50003C00E18C2068002900F0908005F101091B
:102B60000DE000BFB8F1000F28D018F8011B41603C
:102B7000E18C0139E184E18C002900F07F8001685B
:102B80000906EFD4B9F1000F0AD0FDB1FDF7FEFE42
:102B9000801BA8421AD8206801680906F6D5E1E72B
:102BA00001680906DED4016809065CBF01685FEAB6
:102BB0000161D7D401680906F2D5D3E737F8021BC3
:102BC0004FF000086FF35F21D1E700BF206850E8A5
:102BD000030F216820F4D07041E80302BAB32068E3
:102BE00050E8030F216820F4D07041E8030272B36B
:102BF000206850E8030F216820F4D07041E80302F8
:102C00002AB3206850E8030F216820F4D07041E80F
:102C10000302002ADAD11AE0206850E8050F216883
:102C200020F0010041E80502DAB1206850E8050F04
:102C3000216820F0010041E8050292B1206850E8C7
:102C4000050F216820F0010041E805024AB1206823
:102C500050E8050F216820F0010041E80502002A34
:102C6000DAD1202084F83D0084F83E00002084F86A
:102C70003C00032001B0BDE8F08300BF01684906B5
:102C800019D4FDB1691C0DD10168490613D401683E
:102C900049065CBF01685FEA41610CD401684906DE
:102CA000F2D508E0FDF772FE801BA8420AD8206822
:102CB00000684006F6D5202084F83D00002001B0D1
:102CC000BDE8F083206850E8030F216820F4D0703D
:102CD00041E80302E2B3206850E8030F216820F4C2
:102CE000D07041E803029AB3206850E8030F2168CE
:102CF00020F4D07041E8030252B3206850E8030F7B
:102D0000216820F4D07041E80302002ADAD11FE0E4
:102D1000206850E8050F216820F0010041E8050215
:102D2000002A9ED0206850E8050F216820F001009D
:102D300041E80502002A3FF494AF206850E8050FEF
:102D4000216820F0010041E80502002A3FF489AF24
:102D5000206850E8050F216820F0010041E80502D5
:102D6000002AD5D17DE700BF4FF00008EEE6000055
:102D700070470000FEE70000B0B540F2BC34C2F27C
:102D800000042068A02140F24C450164C2F2000515
:102D90002868D22181634FF47A7001F007FB206824
:102DA000782101642868AA2181634FF47A7001F0C8
:102DB000FDFA40F2B455C2F2000528685A21816339
:102DC0002068A521C1634FF47A7001F0EFFA2868FA
:102DD000822181632168C8224FF47A70CA63BDE8FA
:102DE000B04001F0E3BA000080B582B0002043F6A5
:102DF00030010190C4F202010A6842F400120A6034
:102E00000A6802F400120192019A009008680022F8
:102E100040F4800008600868052100F480000090FC
:102E200000980C20FDF776FE0C20FDF75FFE0E20CB
:102E300005210022FDF76EFE0E20FDF757FE102043
:102E400005210022FDF766FE1020FDF74FFE112040
:102E500005210022FDF75EFE1120FDF747FE3A2016
:102E600005210022FDF756FE3A20FDF73FFE4620E1
:102E700005210022FDF74EFE462002B0BDE880404D
:102E8000FDF734BE10B546F2E472C0F60002102021
:102E9000802101F011FB40F21004C2F200046060D6
:102EA00043F6B51046F29472C0F60000C0F6000278
:102EB000002101F09FFBA06043F6B52046F2B872F6
:102EC000C0F60000C0F60002002101F093FBE060B4
:102ED00010BD00002DE9F04786B0002443F6300015
:102EE00005940094C4F20200016840F6004841F0E5
:102EF000100101600168C4F2020801F010010091A4
:102F0000009900940168A8F5006541F08001016016
:102F10000168012201F0800100910099009401688C
:102F20004FF4805741F00101016001684FF0010941
:102F300001F00101009100990094016841F0020143
:102F40000160016801F0020100910099009401689C
:102F500041F008010160016801F008010091009949
:102F60000094016841F00401016000684FF4805151
:102F700000F00400009000982846FDF701FD40464F
:102F80004FF480610122FDF7FBFC40464FF40461E1
:102F90000022FDF7F5FCA8F5406630464FF480713D
:102FA00001224FF4807AFDF7EBFCCDE9017901AF06
:102FB00028463946CDE90344FDF70EFC4FF4446042
:102FC000CDE9010940463946CDE90344FDF704FC4B
:102FD00030463946CDE901A9CDE90344FDF7FCFBB4
:102FE00006B0BDE8F087000080B58CB040F2044028
:102FF0000021C2F2000041F600024FF0630C0B9179
:10300000CDE909110791CDE90511CDE90311CDE90C
:103010000111C4F200025323C0E9021C01618021A6
:10302000C0E900238161FEF71FF9002818BFFDF7F2
:1030300091F94FF48050089040F20440C2F2000031
:1030400008A9FEF745FA002818BFFDF783F940F2FA
:103050000440C2F20000FEF713FE002818BFFDF77F
:1030600079F9602001900020CDE90200059040F23E
:103070000440C2F2000001A90022FEF7EFFC002884
:1030800018BFFDF767F940F20440C2F2000001A941
:103090000422FEF7E3FC002818BFFDF75BF940F2BD
:1030A0000440C2F20000FEF79BFB0CB080BD0000A4
:1030B00010B596B040F2BC3000220021C2F20000F0
:1030C000C4F2010240F28F6340F2CF744FF0800CE3
:1030D0001591CDE913111191CDE90F11CDE90D1124
:1030E000CDE90B11CDE90911CDE90711CDE90511A4
:1030F000CDE90311CDE90111C0E90023C0E90214B3
:10310000C0E90411C0F818C0FEF7AEF8002818BFD7
:10311000FDF720F94FF48050129040F2BC30C2F21B
:10312000000012A9FEF7D4F9002818BFFDF712F924
:1031300040F2BC30C2F20000FEF7A2FD002818BF2A
:10314000FDF708F940F2BC300024C2F2000010A9DB
:10315000CDE91044FEF72CF8002818BFFDF7FAF867
:103160006020CDE9090440F2BC30C2F2000009A998
:103170000022CDE90B44CDE90D440F94FEF76EFC1F
:10318000002818BFFDF7E6F840F2BC30C2F200009C
:1031900009A90422FEF762FC002818BFFDF7DAF83F
:1031A00040F2BC30C2F2000009A90822FEF756FC2A
:1031B000002818BFFDF7CEF840F2BC30C2F2000084
:1031C00009A90C22FEF74AFC002818BFFDF7C2F837
:1031D00000200590CDE90300CDE901004FF4005136
:1031E000089040F2BC300691C2F2000001A9FDF740
:1031F000B9FF002818BFFDF7ADF840F2BC30C2F2AD
:103200000000FEF7EDFA16B010BD000010B58EB04C
:1032100040F24C400021C2F2000040F2CF740D9108
:10322000CDE90B110991CDE90711CDE90511CDE9E2
:103230000311CDE901114FF0804240F24733C0E95C
:10324000021401618021C0E900238161FEF70CF8BE
:10325000002818BFFDF77EF84FF480500A9040F226
:103260004C40C2F200000AA9FEF732F9002818BF4C
:10327000FDF770F840F24C40C2F20000FEF700FD8E
:10328000002818BFFDF766F840F24C400024C2F257
:10329000000008A9CDE90844FDF78AFF002818BFFF
:1032A000FDF758F86020CDE9010440F24C40C2F22D
:1032B000000001A9002203940594FEF7CFFB00282B
:1032C00018BFFDF747F840F24C40C2F2000001A9D8
:1032D0000422FEF7C3FB002818BFFDF73BF840F2BD
:1032E0004C40C2F2000001A90822FEF7B7FB0028FB
:1032F00018BFFDF72FF840F24C40C2F2000001A9C0
:103300000C22FEF7ABFB002818BFFDF723F840F2B4
:103310004C40C2F20000FEF763FA0EB010BD000090
:1033200010B58EB040F294400021C2F2000040F28D
:10333000004240F2CF740D91CDE90B110991CDE916
:103340000711CDE90511CDE90311CDE90111C4F251
:10335000000240F24733C0E9021401618021C0E954
:1033600000238161FDF780FF002818BFFCF7F2FF02
:103370004FF480500A9040F29440C2F200000AA933
:10338000FEF7A6F8002818BFFCF7E4FF40F29440CF
:10339000C2F20000FEF774FC002818BFFCF7DAFF49
:1033A00040F294400024C2F2000008A9CDE908448C
:1033B000FDF7FEFE002818BFFCF7CCFF6020CDE92A
:1033C000010440F29440C2F2000001A900220394DB
:1033D0000594FEF743FB002818BFFCF7BBFF40F243
:1033E0009440C2F2000001A90422FEF737FB002836
:1033F00018BFFCF7AFFF40F29440C2F2000001A9F1
:103400000822FEF72BFB002818BFFCF7A3FF40F2B1
:103410009440C2F2000001A90C22FEF71FFB002815
:1034200018BFFCF797FF40F29440C2F20000FEF78D
:10343000D7F90EB010BD000010B58EB040F2DC40E0
:103440000021C2F2000040F6000263240D91CDE994
:103450000B110991CDE90711CDE90511CDE9031152
:10346000CDE90111C4F2000240F24733C0E9021471
:1034700001618021C0E900238161FDF7F5FE00288C
:1034800018BFFCF767FF4FF480500A9040F2DC4011
:10349000C2F200000AA9FEF71BF8002818BFFCF7CB
:1034A00059FF40F2DC40C2F20000FEF7E9FB0028C1
:1034B00018BFFCF74FFF40F2DC400024C2F20000CE
:1034C00008A9CDE90844FDF773FE002818BFFCF7F2
:1034D00041FF6020CDE9010440F2DC40C2F200006F
:1034E00001A9002203940594FEF7B8FA002818BF3A
:1034F000FCF730FF40F2DC40C2F2000001A90422D8
:10350000FEF7ACFA002818BFFCF724FF40F2DC40BD
:10351000C2F2000001A90822FEF7A0FA002818BF95
:10352000FCF718FF40F2DC40C2F2000001A90C22B7
:10353000FEF794FA002818BFFCF70CFF40F2DC40BD
:10354000C2F20000FEF74CF90EB010BD10B596B0F7
:1035500040F26C5040F200420021C2F20000C4F27E
:10356000010240F6CF4363244FF0800C1591CDE962
:1035700013111191CDE90F11CDE90D11CDE90B1109
:10358000CDE90911CDE90711CDE90511CDE9031107
:10359000CDE90111C0E90023C0E90214C0E904111A
:1035A000C0F818C0FDF760FE002818BFFCF7D2FE77
:1035B0004FF48050129040F26C50C2F2000012A9F9
:1035C000FDF786FF002818BFFCF7C4FE40F26C50E0
:1035D000C2F20000FEF754FB002818BFFCF7BAFE49
:1035E00040F26C500024C2F2000010A9CDE9104452
:1035F000FDF7DEFD002818BFFCF7ACFE6020CDE92A
:10360000090440F26C50C2F2000009A90022CDE981
:103610000B44CDE90D440F94FEF720FA002818BFA3
:10362000FCF798FE40F26C50C2F2000009A9042297
:10363000FEF714FA002818BFFCF78CFE40F26C501D
:10364000C2F2000009A90C22FEF708FA002818BFF0
:10365000FCF780FE00200590CDE90300CDE90100D4
:103660004FF40051089040F26C500691C2F20000F5
:1036700001A9FDF777FD002818BFFCF76BFE40F2AB
:103680006C50C2F20000FEF7ABF816B010BD00009F
:1036900080B58CB040F2B4500021C2F2000044F278
:1036A000000240F2CF7C0B91CDE909110791CDE9E1
:1036B0000511CDE90311CDE90111C4F2010240F277
:1036C0008F63C0E9021C01618021C0E90023816190
:1036D000FDF7CAFD002818BFFCF73CFE4FF48050F0
:1036E000089040F2B450C2F2000008A9FDF7F0FEC5
:1036F000002818BFFCF72EFE40F2B450C2F20000C2
:10370000FEF7BEFA002818BFFCF724FE60200190E7
:103710000020CDE90200059040F2B450C2F2000052
:1037200001A90022FEF79AF9002818BFFCF712FE43
:1037300040F2B450C2F2000001A90422FEF78EF953
:10374000002818BFFCF706FE40F2B450C2F2000099
:10375000FEF746F80CB080BD80B540F2FC5041F257
:103760000001C2F20000C4F2010100234FF00C0C72
:103770004FF4E13280E80E00C0E90333C0E905C32D
:10378000C361FFF721F8002808BF80BDBDE8804075
:10379000FCF7E0BD80B540F2406044F20041C2F267
:1037A0000000C4F2000100234FF00C0C4FF4E13292
:1037B00080E80E00C0E90333C0E905C3C361FFF729
:1037C00003F8002808BF80BDBDE88040FCF7C2BDFB
:1037D00080B540F2846044F60001C2F20000C4F2F9
:1037E000000100234FF00C0C4FF4E13280E80E0092
:1037F000C0E90333C0E905C3C361FEF7E5FF002854
:1038000008BF80BDBDE88040FCF7A4BDFEE7000016
:10381000FEE70000000000000000000000000000C3
:10382000EFF30980BFF36F8F154B1A681EF0100F6E
:1038300008BF20ED108A20E9F04F10602DE9090043
:103840004FF0500080F31188BFF34F8FBFF36F8F9D
:1038500001F0D8FF4FF0000080F31188BDE80900A7
:1038600019680868B0E8F04F1EF0100F08BFB0EC00
:10387000108A80F30988BFF36F8F704700BF00BFC5
:10388000200000202DE9F04140F2BC38C2F20008CF
:1038900040460021FEF726FA40460421FEF722FAB0
:1038A00040460821FEF71EFA40460C21FEF71AFAA0
:1038B00040F24C45C2F2000528460021FEF712FAFC
:1038C00028460421FEF70EFA40F29446C2F20006A2
:1038D00030460021FEF706FA30460421FEF702FAD0
:1038E00030460821FEF7FEF930460C21FEF7FAF9C2
:1038F00040F2B457C2F2000738460021FEF7F2F951
:1039000038460421FEF7EEF940F2DC44C2F200042E
:1039100020460421FEF7E6F920460C21FEF7E2F9E5
:1039200040F26C54C2F2000420460421FEF7DAF99A
:1039300020460C21FEF7D6F928460821FEF7D2F9D9
:1039400028460C21FEF7CEF940F20444C2F20004EE
:1039500020460021FEF7C6F920460421FEF7C2F9F1
:10396000D8F8000078210164396882228A632968C6
:10397000AA228A63C821C1633068B421C163BE2111
:103980004163BDE8F081000000000000000000007D
:10399000074B19680868B0E8F04F80F30988BFF357
:1039A0006F8F4FF0000080F31188704700BF00BF99
:1039B0002000002040F2406040F61841C2F20000B2
:1039C000C2F200017F22FEF723FAFFF75BFF4FF4FC
:1039D0007A7000F0EBFC40F21004C2F2000400BF69
:1039E000012000F0E3FC20780128F9D1FFF7C4F9A9
:1039F0000120FCF77BFC4FF4C86000F0D7FC0020EE
:103A00000024FCF773FC4FF47A7000F0CFFC40F216
:103A1000DC40C2F20000006840F2EB4140F2044595
:103A20008162C2F2000528684621816340F6CA001F
:103A300000F0BCFC286884630120FCF757FC4FF4BD
:103A40007A7000F0B3FC40F29444C2F200042068A3
:103A50006E2141634FF4167000F0A8FC2068BE216F
:103A6000416341F2941000F0A1FC0020FCF73EFC01
:103A70002068782141634FF4FA7000F097FC012030
:103A8000FCF734FC4FF4966000F090FC0020FCF74B
:103A90002DFC00F0E9FB0120FCF728FC4FF47A60D4
:103AA00000F084FC0020FCF721FC00BF012000F0A6
:103AB0007DFCFBE7A0B040F21007C2F200076C46A5
:103AC0000EA54FF001080FA603E000BF012000F093
:103AD0006DFC7868214600220A2300F0A9FC00282A
:103AE000F4D1204629460522FCF7BFFB0028EDD182
:103AF000304687F8008002F02FFEE7E773746172AA
:103B00007400000073746172740D000080B54EF291
:103B10001000CEF20000006802F024FC012808BF6B
:103B200080BDBDE8804001F08DBF0000B0B592B00F
:103B3000002443F64000CDE90A44CDE90844059449
:103B4000CDE90344CDE901440094C4F202000168C8
:103B5000022541F080510160006800F08050009023
:103B6000009847F200000094C4F20000016841F49C
:103B7000804101600068A82100F480400090009816
:103B8000012006904FF4803007904FF480000D9094
:103B900004200E90119006A80C95CDE90F15FDF7A5
:103BA00023F928B1EFF3108072B600BFFEE700BF23
:103BB0000F20CDE901054FF4A05004904FF4805040
:103BC000059001A805210394FCF7E0FF20B1EFF375
:103BD000108072B6FEE700BF12B0B0BD4EF688503E
:103BE000CEF20000016841F47001016070470000EE
:103BF00080B540F2BC30C2F20000FDF739FD40F262
:103C0000B450C2F20000BDE88040FDF731BD0000B5
:103C100040F22450C2F20000FDF72ABD10B540F674
:103C2000FF3E0368C4F2000E40F2004C7045C4F23F
:103C3000010C27DCB0F1804F31D040F20042C4F2D9
:103C4000000290422BD040F60002C4F200029042E3
:103C500025D041F6FF72C4F20002904229DC704583
:103C60003CDCB0F1804F5FD040F20042C4F2000271
:103C7000904259D040F60002C4F20002904253D064
:103C800056E000BF40F60042C4F20002904206D067
:103C9000604504D00022C4F201029042D9D14A68A2
:103CA00023F07003134341F6FF72C4F20002904206
:103CB000D5DD43F6FF72C4F20102904222DC42F2EB
:103CC0000002C4F2000290422ED00022C4F201028F
:103CD000904229D0604527D02AE000BF40F600423C
:103CE000C4F2000290421FD041F60002C4F200026A
:103CF000904219D041F60042C4F20002904213D023
:103D000016E000BF44F20002C4F2010290420BD060
:103D100044F60002C4F20102904205D044F200428F
:103D2000C4F20102904203D1CA6823F440731343E2
:103D300023F080024B69D1F800E08C681A430260DE
:103D4000C46240F48062C0F828E0624504BF09699B
:103D500001630121416110BD806B0021C185C184D7
:103D6000FEF77EBA806B01684A6990F83D30212BDE
:103D70002DD112F080022AD00021C184016851E8BF
:103D8000031F026821F0C00142E80313DBB10168A0
:103D900051E8031F026821F0C00142E8031393B108
:103DA000016851E8031F026821F0C00142E80313D3
:103DB0004BB1016851E8031F026821F0C00142E8DD
:103DC0000313002BDAD1202180F83D1001684969E6
:103DD00090F83E20222A40F07D8011F0400179D0F9
:103DE0000021C185016851E8031F026821F4907128
:103DF00042E80313BBB3016851E8031F026821F4D2
:103E0000907142E8031373B3016851E8031F02681D
:103E100021F4907142E803132BB3016851E8031FAA
:103E2000026821F4907142E80313002BDAD11AE002
:103E3000016851E8051F026821F0010142E80513FD
:103E4000DBB1016851E8051F026821F0010142E879
:103E5000051393B1016851E8051F026821F00101C3
:103E600042E805134BB1016851E8051F026821F0D3
:103E7000010142E80513002BDAD1016B012924D19D
:103E8000016851E8031F026821F0100142E80313A2
:103E9000DBB1016851E8031F026821F0100142E81C
:103EA000031393B1016851E8031F026821F0100168
:103EB00042E803134BB1016851E8031F026821F087
:103EC000100142E80313002BDAD1202180F83E10C4
:103ED00000210163016C41F010010164FEF7C0B9DB
:103EE0000168806B0968C90500F19F800021C185C8
:103EF000016851E8031F026821F4807142E803134E
:103F0000E3B1016851E8031F026821F4807142E8BF
:103F100003139BB1016851E8031F026821F480710B
:103F200042E8031353B1016851E8031F026821F40A
:103F3000807142E80313002BDAD100BF016851E819
:103F4000051F026821F0010142E80513BBB30168B7
:103F500051E8051F026821F0010142E8051373B31F
:103F6000016851E8051F026821F0010142E80513CC
:103F70002BB3016851E8051F026821F0010142E8F6
:103F80000513002BDAD11AE0016851E8051F026819
:103F900021F0400142E80513DBB1016851E8051F3B
:103FA000026821F0400142E8051393B1016851E82D
:103FB000051F026821F0400142E805134BB101687A
:103FC00051E8051F026821F0400142E80513002B6B
:103FD000DAD1202180F83E10016B012925D100BFE4
:103FE000016851E8031F026821F0100142E8031341
:103FF000DBB1016851E8031F026821F0100142E8BB
:10400000031393B1016851E8031F026821F0100106
:1040100042E803134BB1016851E8031F026821F025
:10402000100142E80313002BDAD1016B012918BFFC
:10403000FEF756BD818DFDF7DDBF0000806B016B83
:10404000012918BFFEF74EBD818D4908FDF7D2BF8B
:1040500081B090F83E10222921D183680246B3F541
:10406000805F09D152F8281F52F8183C002B63D00A
:1040700003685B680AE000BF52F8281F13B90369A0
:10408000002BF5D003685B6803F07F030B701168A9
:1040900001311160C18D01390A04C18502D001B01E
:1040A000704700BF0168CA6822F02002CA60CA686F
:1040B00022F48072CA604A6922F001024A6120211A
:1040C00080F83E10016B01293ED10021016300BF41
:1040D000016851E8031F026821F0100142E8031350
:1040E000DBB1016851E8031F026821F0100142E8CA
:1040F000031393B1016851E8031F026821F0100116
:1041000042E803134BB1016851E8031F026821F034
:10411000100142E80313002BDAD101680A68D206C5
:1041200006D5002200920A68009249680091009921
:10413000818D01B0FDF75EBF026852686FF35F22A8
:1041400021F8022B8162A5E701B0FEF7C9BC00008F
:1041500010B504460068D4E902C22369016921F45C
:10416000405111430161626943EA0C01E369114363
:10417000C268194349F20C639A431143C160416913
:10418000A26921F4407141F20043114340F480627E
:10419000C4F201039A42416102D1FCF7DBFD01E068
:1041A000FCF7C4FDE16963681922B1F5004FA0FB7B
:1041B000020123D15A00DB0FFCF702F848F21F512D
:1041C000C5F2EB11A0FB01235A094FF69C73C0F610
:1041D000FF7303F1805302FB0300322303EBC000A3
:1041E000A0FB01014FF4F87000EA111000EB02107F
:1041F000C1F3421108442168886010BD9A009B0FEA
:10420000FBF7DEFF48F21F51C5F2EB11A0FB0123C3
:104210005A094FF69C73C0F6FF7302FB030032236A
:1042200003EB0010A0FB0101F02000EA511000EBAD
:104230000210C1F3431108442168886010BD0000DA
:1042400040F2FC50C2F20000FEF70CB840F24060B1
:10425000C2F20000FEF706B840F28460C2F200002D
:10426000FEF700B8FEE700002DE9F04F81B040F204
:104270000008C4F2020808F54065284640210122E2
:10428000FCF77EFB40464FF4807100224FF000099E
:10429000FCF776FB40F26C57C2F200073868322612
:1042A0008663066444F6382000F080F83868C0F869
:1042B0003890C0F840904FF4FA7000F077F840F270
:1042C0009444C2F2000420684FF4877AC0F83CA0FE
:1042D0004FF47A7000F06AF820684FF0B40BC0F821
:1042E0003CB04FF47A7000F061F82846402100227B
:1042F000FCF746FB40464FF480710122FCF740FB7F
:1043000038688663066444F6382000F04FF8386851
:10431000C0F83890C0F840904FF4FA7000F046F8BA
:104320002068C0F83CA04FF47A7000F03FF8216894
:104330004FF4FA70C1F83CB001B0BDE8F04F00F0A6
:1043400035B8000080B582B0019040F2FC50C2F256
:10435000000001A901224FF6FF73FEF7C5FB01988B
:1043600002B080BDFCF726FBFFF7E0FBFEF7B2FDD5
:10437000FEF73AFDFFF70EFAFFF7EEF9FEF798FEAB
:10438000FEF744FFFEF7CCFFFFF756F8FFF7DEF825
:10439000FFF77EF9FEF728FEFFF71AFA00F016F88D
:1043A000FEF770FD00F026F8FEE70000EFF3058150
:1043B00000291CBF6FF005007047002804BF0020D3
:1043C000704780B501F0D4F8002080BDEFF3058080
:1043D00000281CBF6FF00500704740F22410C2F2A5
:1043E00000000168002911BF4FF0FF30012101607A
:1043F0000020704710B5EFF3058000281CBF6FF058
:10440000050010BD40F22410C2F20000016801292D
:104410001CBF4FF0FF3010BD4EF61F51CEF2000111
:1044200000240C700221016001F06CF9204610BDDF
:1044300010B582B01C46B0FA80F3B1FA81F25B0984
:104440005209EFF3058CBCF1000F42EA030219D0C8
:10445000002C18BF0124224315D10022019201AA89
:1044600001F050FE01281BD10198B0B14EF6045066
:10447000CEF200004FF080510160BFF34F8FBFF3C9
:104480006F8F0AE022B16FF0030002B010BD00BFD1
:10449000224601F065FD012806D1002002B010BDC2
:1044A0006FF0020002B010BD6FF00100002C08BFD9
:1044B0006FF0020002B010BD70B582B01546002941
:1044C0004FF00004EFF3058218BF002802D1204608
:1044D00002B070BD002AFAD1B5B1D5E902321BB3E2
:1044E000502A26D32A6922B36E6901FB00F4A64242
:1044F0004FF00004EBD3009401F000FB06460028C7
:10450000E5D02C6807E000BF0022002401F0B2FAD9
:1045100006460028DBD03046214600F0A7FF34468F
:10452000204602B070BD00BF1AB92A690AB96A698B
:1045300022B10024204602B070BD00BF002200243A
:1045400001F098FA06460028DBD1C0E7B0B582B08A
:104550001C46B0FA80F3B1FA81F5EFF305825B09EE
:104560006D09002A43EA05020AD0002C18BF012475
:1045700022430BD06FF00305284602B0B0BD00BF48
:10458000F2B16FF00305284602B0B0BD00220192DF
:1045900001AA002301F038FC012821D1019828B399
:1045A0004EF60450CEF200004FF080510160BFF390
:1045B0004F8FBFF36F8F0025284602B0B0BD00BFFC
:1045C00022460023002501F009FB0128D4D06FF01A
:1045D0000105002C08BF6FF00205284602B0B0BDEF
:1045E0006FF00205284602B0B0BD00BF0025284686
:1045F00002B0B0BD2DE9F04184B08E460024039492
:10460000EFF3058150B149B94FF0000452B19369FD
:10461000002B08BF1823382B16D90024204604B0DD
:10462000BDE8F08180251823002103AF0093AAB2D2
:104630007346019701F02AFE0399012808BF0C4632
:10464000204604B0BDE8F0811179C90724D157692B
:10465000D2E902864FEA970C1168002F654608BF21
:104660008025B8F1000F13D05C2E15D312690024F9
:10467000002A18BF002FD1D0CDE900326246734620
:10468000CDF8088001F032FE04B0BDE8F08100BF33
:1046900016B91269002AC8D00024204604B0BDE82B
:1046A000F08100002DE9F041044600F0EFFD40F2FA
:1046B0002006C2F20006F06840F2B8750130F060E2
:1046C0003068C2F2000558B13069002840F0078117
:1046D0003068E16AC06A884298BF3460FFE000BF7A
:1046E0003460F068012840F0FA80284600F074FD3C
:1046F00005F1140000F070FD05F1280000F06CFDDC
:1047000005F13C0000F068FD05F1500000F064FD8B
:1047100005F1640000F060FD05F1780000F05CFD3B
:1047200005F18C0000F058FD05F1A00000F054FDEB
:1047300005F1B40000F050FD05F1C80000F04CFD9B
:1047400005F1DC0000F048FD05F1F00000F044FD4B
:1047500005F5827000F040FD05F58C7000F03CFD21
:1047600005F5967000F038FD05F5A07000F034FDF9
:1047700005F5AA7000F030FD05F5B47000F02CFDD1
:1047800005F5BE7000F028FD05F5C87000F024FDA9
:1047900005F5D27000F020FD05F5DC7000F01CFD81
:1047A00005F5E67000F018FD05F5F07000F014FD59
:1047B00005F5FA7000F010FD05F5027000F00CFD33
:1047C00005F5077000F008FD05F50C7000F004FD1C
:1047D00005F5117000F000FD05F5167000F0FCFC09
:1047E00005F51B7000F0F8FC05F5207000F0F4FCF6
:1047F00005F5257000F0F0FC05F52A7000F0ECFCE2
:1048000005F52F7000F0E8FC05F5347000F0E4FCCD
:1048100005F5397000F0E0FC05F53E7000F0DCFCB9
:1048200005F5437000F0D8FC05F5487000F0D4FCA5
:1048300005F54D7000F0D0FC05F5527000F0CCFC91
:1048400005F5577000F0C8FC05F55C7000F0C4FC7D
:1048500005F5617000F0C0FC05F5667000F0BCFC69
:1048600005F56B7000F0B8FC05F5707000F0B4FC55
:1048700005F5757000F0B0FC05F57A7000F0ACFC41
:1048800005F57F7000F0A8FC05F5826000F0A4FC3F
:1048900005F2244000F0A0FC05F5876000F09CFCC8
:1048A00005F24C4000F098FC40F2FC08C2F200080F
:1048B000404600F091FC08F11407384600F08CFCEB
:1048C00006F1640000F088FC06F13C0000F084FC76
:1048D00006F1500000F080FCC6F81C80376270685A
:1048E000716A421CE06A72608842626488BF7062CA
:1048F00000EB800005EB8000211D00F0AFFC00F014
:10490000E9FC306988B13068E16AC06A884228BF32
:10491000BDE8F0814EF60450CEF200004FF0805119
:104920000160BFF34F8FBFF36F8FBDE8F0810000D0
:1049300040F2200540F2B8764EF60458C2F2000567
:10494000C2F20006CEF200084FF0805703E000BF2D
:10495000204600F0D7FCA868D0B100F097FCA86C06
:10496000C468201D00F00AFCE8680138E860A86807
:104970000138A86000F0AEFC94F859000228EAD093
:104980000128E5D070B9206B00F0BCFCE0E700BF67
:1049900030680228DFD3C8F80070BFF34F8FBFF331
:1049A0006F8FD8E74FF0500080F31188BFF36F8FFF
:1049B000BFF34F8FFEE700002DE9F0470A9C8246C7
:1049C000206B16460F46DDE908599100A52298464E
:1049D000FBF739FC206B002F00EB8600A0F10400F0
:1049E00020F0070656D0387884F83400387800284C
:1049F0004BD0787884F835007878002845D0B8789E
:104A000084F83600B87800283FD0F87884F837006A
:104A1000F878D0B3387984F838003879A8B3787941
:104A200084F83900787980B3B87984F83A00B87995
:104A300058B3F87984F83B00F87930B3387A84F8C1
:104A40003C00387A08B3787A84F83D00787AE0B18F
:104A5000B87A84F83E00B87AB8B1F87A84F83F00A2
:104A6000F87A90B1387B84F84000387B68B1787B65
:104A700084F84100787B40B1B87B84F84200B87B71
:104A800000281CBFF87B84F84300002084F8430012
:104A900003E000BF002084F834000027201D372DDC
:104AA00028BF3725E562C4E9135700F0A1FB04F1E4
:104AB000180000F09DFBC5F13800A061304651465A
:104AC000424624616462676584F8587000F042FBD6
:104AD000B9F1000F206018BFC9F80040BDE8F087A9
:104AE00008480068006880F308884FF0000080F3F1
:104AF000148862B661B6BFF34F8FBFF36F8F00DFCC
:104B000000BF000008ED00E081B00020009040F2FE
:104B10000C00C2F2000000684FF0500181F31188D0
:104B2000BFF36F8FBFF34F8F013007D0FEE700BF99
:104B3000009830B9009820B9009810B90098002862
:104B4000F6D001B07047000088B040F2980AC2F277
:104B5000000A0DF11009EB46DAF8080005681DB1EE
:104B6000C068046801E000BF002400F043FE01F0CB
:104B700009FCDAF810100646884220D3002DCAF846
:104B8000106051D0A6424FD301F004FDDAF80800BE
:104B9000C068C7683D1D284600F0F0FA97F8280065
:104BA000410745D400F0FE0087F8280084E000BFEC
:104BB0006860DAF8080039462D6100F01DFBDAF86C
:104BC0000800016831B3C068C56804682F1D384605
:104BD00000F0D4FA296A2846884795F8280040074B
:104BE000EDD5A8692044A042E2D8DAF800000028F8
:104BF00000F04881002004A931C101F0B3FBDAF8CC
:104C0000000049460022002300F0E8FF0028D6D12A
:104C100038E100BFDAF80C10CAF81060CAE90210D7
:104C200001F0B8FC1AE100BF65B1002210E000BF3E
:104C3000B8693F610119B14279601FD90AF10800D2
:104C400021E000BFDAF80C000068B0FA80F04209F9
:104C5000DAF80000A11B00F061FC01F09BFC0028C9
:104C600040F0FC804EF60450CEF200004FF0805130
:104C70000160BFF34F8FBFF36F8FEFE0311B8142B5
:104C800006D20AF10C000068294600F0B5FA13E0DC
:104C9000DAF80000002800F01381002004A991C177
:104CA00001F060FBDAF8000049460022002300F022
:104CB00095FF002800F00481396A38468847CDE026
:104CC0000098B0F1FF3F07DCDDE901200399904730
:104CD0000098002800F1C280029E706910B1301D5A
:104CE00000F04CFA01F04EFBDAF81010074688424B
:104CF0000DD30098CAF8107009283FD9AEE000BF64
:104D00006860DAF8080021462D6100F075FADAF8DB
:104D10000800016841B3C068C568D0F800802C1D48
:104D2000204600F02BFA296A2846884795F8280083
:104D30004007ECD5A86940444045E1D8DAF80000C6
:104D4000002800F095800020CDE90408069501F0C8
:104D500009FBDAF8000049460022002300F03EFF7C
:104D60000028D4D184E000BFDAF80C10CAE90210A0
:104D70000098CAF81070092800F27080DFE800F08F
:104D80000606064448620606444800BF96F8280016
:104D9000019A40F00101B06986F828108318314665
:104DA00041F8043FBB42366106D997420AF1080038
:104DB00007D293420AD204E0BA1A824206D20AF11A
:104DC0000C00006800F018FA48E000BF316A304675
:104DD000884796F82800400740D5DAF800000028F8
:104DE0005AD00198B169069608440021CDE9041013
:104DF00001F0B8FADAF8000049460022002300F07A
:104E0000EDFE58BB48E000BF96F8280022E000BF46
:104E100096F8280040F00101019886F82810002833
:104E2000B06143D0384431460AF10C0241F8040F16
:104E30003661B84288BF0AF10802106800F0DCF958
:104E40000CE000BF96F82800810703D4304600F03C
:104E500059FA03E000F0FE0086F82800DAF80000B6
:104E60005946002201F07CF800287FF429AF73E650
:104E70004FF0500080F31188BFF36F8FBFF34F8F57
:104E8000FEE700BF4FF0500080F31188BFF36F8F33
:104E9000BFF34F8FFEE700BF4FF0500080F3118843
:104EA000BFF36F8FBFF34F8FFEE700BF4FF050008F
:104EB00080F31188BFF36F8FBFF34F8FFEE700BF02
:104EC0004FF0500080F31188BFF36F8FBFF34F8F07
:104ED000FEE70000F0B581B0044600F0D7F994F980
:104EE0004560012E0FDB04F1240500BF286850B196
:104EF000284601F015FB002818BF00F083FBF0B234
:104F0000013E0128F2D8FF2684F8456000F0E2F95E
:104F100000F0BCF994F94470012F0EDB04F1100588
:104F2000286850B1284601F0FBFA002818BF00F0AD
:104F300069FBF8B2013F0128F2D884F8446001B05F
:104F4000BDE8F04000F0C6B970B5044600F052FC70
:104F500040F2D40CC2F2000CDCF8040050B19CF812
:104F60000000002818BF4FF000404FF0000574BB50
:104F70008DE000BF40F69840C2F20000C21D22F052
:104F8000070210F00701A0EB020318BF1046002231
:104F90004FF47055CCE90602002918BF03F570558F
:104FA000411921F00701A1F10803CCF8043041E9CF
:104FB0000222191AC0E9003101208CF800004FF0DC
:104FC0000040CCE90211002C4FF000055FD02040DA
:104FD0005DD124F0070000F11002600708BF04F162
:104FE0000802002A4FF0000551D0DCF80800824288
:104FF0004DD8604650F818EFDEF8045095422CD298
:10500000DEF80010C1B174464D68954218D20B68A5
:10501000B3B15D68954217D21868A8B1456895424A
:1050200016D20468A4B16568954215D22168A646D7
:105030000029E9D111E000BF0CF118000DE000BF1C
:105040008E46204609E000BF9E46084605E000BFA8
:105050008646184601E000BFA646DCF804108E45DF
:1050600014D00168DEF80040AB1A112B04604DD358
:105070000EEB0205680719D04FF0500080F311883D
:10508000BFF36F8FBFF34F8FFEE700BF002501F026
:1050900081FA68075BD04FF0500080F31188BFF3AE
:1050A0006F8FBFF34F8F00BFFEE700BF0CF11800FA
:1050B0006B60CEF8042000BF0368AB420AD21868C8
:1050C000A8420BD20368AB4204D218681A46A84221
:1050D000F2D304E00246184601E000BF1A465368C6
:1050E0006C68D618AE4202D11C44154654602B1988
:1050F000834207D1DCF80430984203D0D0E90003A2
:1051000023446B60AA42286018BF156001F10805AE
:10511000DEF80400DCE90212091A9142CCF808100A
:1051200038BFCCF80C109CF80010002918BF40F0D4
:105130000040CEF80400DCF8100000210130CEF869
:105140000010CCF8100001F025FA6807A3D128461A
:1051500070BD0000034644F60930C0F600004FF071
:10516000807C21F0010103E903106FF0020043F895
:10517000240CA3F1440043F8202C7047D0E90132FD
:1051800001699A60D1F804C082688445536008BF01
:105190004A600022026108680138086008687047A8
:1051A00044F69C23C2F20003036044F69C00C2F262
:1051B00000000860802010607047000044F6F8632B
:1051C000C2F20003036044F6F820C2F20000086057
:1051D0004FF48070106070474FF0FF31024642F884
:1051E000081F00214260C0E90322016070470000EF
:1051F000002101617047000010B5D1F800E01EF1F8
:10520000010213D000F1080462681368734511D8D5
:1052100053681C68744511D85A68146874450FD8CF
:1052200054682368A4467345EED90BE00269D2F8AE
:1052300004C007E09446224604E000BF9C4601E01B
:1052400094461A46C1F804C0CCF808108A60516030
:10525000086101680131016010BD0000D0F800C094
:10526000436808619A684B608A609A6899605160E7
:105270000CF1010101607047DFF80C00016841F496
:10528000700101607047000088ED00E04FF05000B1
:1052900080F31188BFF36F8FBFF34F8F40F20C0084
:1052A000C2F2000001684A1C026009B1704700BFE9
:1052B0004EF60450CEF200000068000608BF7047AA
:1052C0004FF0500080F31188BFF36F8FBFF34F8F03
:1052D000FEE7000040F20C00C2F20000016839B1A4
:1052E0000139016018BF7047002080F311887047B2
:1052F0004FF0500080F31188BFF36F8FBFF34F8FD3
:10530000FEE7000070B5002808BF70BD40F2D4056C
:10531000C2F200050446287854F8041C002818BF7F
:105320004FF0004008420DD0A4F1080632689AB14F
:105330004FF0500080F31188BFF36F8FBFF34F8F92
:10534000FEE700BF4FF0500080F31188BFF36F8F6E
:10535000BFF34F8FFEE700BF21EA000044F8040CC2
:1053600000F048FA54F8041CA8680844A86005F145
:10537000180000BF0368B3420AD21868B04225D2B1
:105380000368B34204D218681A46B042F2D301E06F
:10539000024618465368D418B44202D1194416463E
:1053A00051607318834206D16B68984203D0D0E9EC
:1053B000000319447160B242306018BF166068691A
:1053C00001306861BDE8704001F0E4B81A465368E6
:1053D000D418B442E5D1E1E74EF21000CEF200005D
:1053E00000210160816040F20801C2F200010968F9
:1053F00044F6D352C1F26202A1FB02124FF0FF3118
:1054000001EB9211416007210160704740F2F40006
:10541000EFF305811029C2F2000011D34EF2F032F1
:10542000CEF20002895C0278914209D24FF050001E
:1054300080F31188BFF36F8FBFF34F8FFEE700BF7C
:105440004EF60C51CEF200010968406801F4E061AB
:10545000814298BF70474FF0500080F31188BFF32E
:105460006F8FBFF34F8F00BFFEE7000044F6547C00
:10547000C2F2000CDCF8002022B3634653F8082F78
:1054800042B3634653F8102F52B3634653F8182FB4
:1054900062B3634653F8202F72B3634653F8282F44
:1054A00082B3634653F8302F92B3634653F8382FD4
:1054B000002A18BF7047072219600CEBC201486030
:1054C000704700BF0022634619600CEBC2014860C0
:1054D000704700BF012219600CEBC20148607047A1
:1054E000022219600CEBC201486070470322196068
:1054F0000CEBC20148607047042219600CEBC2013A
:1055000048607047052219600CEBC2014860704783
:10551000062219600CEBC2014860704770B5154651
:105520000E460446FFF7B2FE94F84400FF2804BF7D
:10553000002084F8440094F84500FF2804BF0020B0
:1055400084F84500FFF7C6FEA06B28B12046BDE8F1
:105550007040FFF7BFBC00BF04F1240031462A466B
:1055600000F092F82046BDE87040FFF7B3BC0000A1
:1055700070B588B340F22005C2F2000504466869A0
:1055800050B14FF0500080F31188BFF36F8FBFF31D
:105590004F8F00BFFEE700BF686901306861AE69E8
:1055A00028680430FFF7EAFD2868A419446005D391
:1055B000286A29680431FFF71FFE08E0E8692968B6
:1055C0000431FFF719FEE86A844238BFEC6200F04C
:1055D000E1FF002818BF70BD4EF60450CEF2000067
:1055E0004FF080510160BFF34F8FBFF36F8F70BDDD
:1055F00040F22001C2F200018A6B026089694160B9
:105600007047000040F22000C2F200000121016357
:105610007047000070B5D8B140F22004C2F2000417
:105620000D4621681831FFF7E7FDA66920680430B0
:10563000FFF7A4FD681C15D02068AD19456019D38B
:10564000206A21680431BDE87040FFF7D5BD00BF76
:105650004FF0500080F31188BFF36F8FBFF34F8F6F
:10566000FEE700BF54F8500B011D2046BDE8704016
:10567000FFF7F4BDE06921680431FFF7BDFDE06A82
:10568000854238BFE56270BDF0B581B0C0B140F26F
:105690002004C2F200040D46216816461831FFF7B7
:1056A000DDFDA76920680430FFF768FD96B154F866
:1056B000500B011D204601B0BDE8F040FFF7CEBD04
:1056C0004FF0500080F31188BFF36F8FBFF34F8FFF
:1056D000FEE700BF2068ED19456007D3206A216806
:1056E000043101B0BDE8F040FFF786BDE0692168F4
:1056F0000431FFF781FDE06A854238BFE56201B001
:10570000F0BD000010B588B00020CDE9050006A866
:1057100005A904AAFFF744FD059800283ED0069C81
:10572000002C45D05C21049A079107995C2949D146
:1057300007992063022084F8590007A80021CDE9C9
:10574000001044F63110C0F6000028A10023029496
:10575000FFF732F92046FEF7A5FF079840F2200434
:10576000C2F20004A062B0B100F08CFF411C33D043
:10577000012810D14FF0500080F31188BFF36F8FD4
:10578000BFF34F8F4FF0FF30E06201202061002017
:10579000A06100F095F808B010BD00BF4FF05000B8
:1057A00080F31188BFF36F8FBFF34F8FFEE700BF09
:1057B0004FF0500080F31188BFF36F8FBFF34F8F0E
:1057C000FEE700BF4FF0500080F31188BFF36F8FEA
:1057D000BFF34F8FFEE700BF4FF0500080F31188FA
:1057E000BFF36F8FBFF34F8FFEE700BF49444C45B7
:1057F0000000000040F22000C2F2000041690131C7
:105800004161704780B540F2200EC2F2000EDEF812
:10581000141019B10121CEF8301080BD0021CEF84E
:105820003010DEF8241040F2B87C01EB8103C2F2A4
:10583000000C5CF823208AB101EB81020CEB82039F
:1058400053F8042F5268181D82421A6020D0D06885
:10585000CEF80000CEF8241080BD00BF0CEB830210
:10586000A2F12803E1B15A6922BB012918D01A68B4
:1058700012BB022914D053F8142CFAB903290FD003
:1058800053F8282C0439002AA3F15003EAD0D3E7B7
:1058900052681A60D068CEF80000CEF8241080BD9F
:1058A0004FF0500080F31188BFF36F8FBFF34F8F1D
:1058B000FEE700BF0139BFE70239BDE70339BBE7A7
:1058C000B0B584B04EF2004CCEF2000C4CF2702118
:1058D000C4F20F11DCF800294B1C9A420AD14FF098
:1058E000500080F31188BFF36F8FBFF34F8F00BF5D
:1058F000FEE700BFDCF800298A4209D14FF05000D2
:1059000080F31188BFF36F8FBFF34F8FFEE700BFA7
:105910009CF800100291FF218CF800109CF80010F8
:105920008DF807109DF8071001F0500240F2F401C5
:10593000C2F200010A7007224A609DF90720B2F105
:10594000FF3F69DC032200BFD31C4B609DF80700BA
:1059500040008DF807009DF90700B0F1FF3F23DC00
:10596000931C4B609DF8070040008DF807009DF9DF
:105970000700B0F1FF3F17DC531C4B609DF8070098
:1059800040008DF807009DF90700B0F1FF3F0BDCE8
:105990004A609DF80700043A40008DF807009DF921
:1059A00007000028D0D4131D032B35D14FF44070CD
:1059B000486002988CF80000DCF8200940F4700080
:1059C000CCF82009DCF8200940F07040CCF8200920
:1059D000FFF702FD40F20C04C2F20004002525602E
:1059E000FFF74AFC4EF63470CEF20000016841F039
:1059F00040410160FFF774F8FFF704FF039520684A
:105A00004FF0500181F31188BFF36F8FBFF34F8FB9
:105A1000013011D0FEE700BF4FF0500080F3118835
:105A2000BFF36F8FBFF34F8FFEE700BF039830B90E
:105A3000039820B9039810B903980028F6D00020E5
:105A400004B0B0BD80B54FF0500080F31188BFF3B3
:105A50006F8FBFF34F8F00F09BFC30B14EF60450B8
:105A6000CEF200004FF080510160002080F31188D9
:105A700080BD00002DE9F041B0B3064648435030E8
:105A800014460F46FFF760FA054650B34FF0000882
:105A9000284685F84680002F18BF50302860C5E999
:105AA0000F67FFF7F3FB2868D5E90F12C5F83880B8
:105AB00002FB0103013901FB0201C5E90103FF20DB
:105AC000E96085F8440085F8450005F11000FFF70E
:105AD00083FB05F12400FFF77FFBFFF7FBFB85F855
